:020000040800F2
:10000000A813002071650008896400088B6400084B
:1000100000000000000000000000000000000000E0
:100020000000000000000000000000008D640008D7
:1000300000000000000000008F64000891640008C8
:100040001312000800000000C71200081B1300086C
:100050001F180008231800086B270008033F00083A
:100060000000000053590008C75A0008275F000825
:100070004B630008076500081765000800000000D2
:100080004B650008956500089765000899650008AC
:100090009B6500089D6500089F650008A165000834
:1000A000A3650008A5650008A7650008A965000804
:1000B000AB650008AD650008000000009D64000805
:1000C000FDB5B2B03A98049102A93B2288540020B1
:1000D0000D9026A8401C31900DE00498329A90476C
:1000E0000490002801D100F02FFF0D98401C0D90C6
:1000F0003398401C339033980178002910D025297B
:10010000EBD100200790089009900A900B900C907A
:10011000002102240120139008201290339D05E055
:100120000D9800F013FF0800139901436D1C287807
:100130002028F8D023280BD02B2804D02D2804D039
:10014000302808D00AE02143F0E708000421ECE75A
:1001500008000821E9E708001021E6E72A280FD166
:10016000349802681068121D349B1A600F900028A2
:1001700004D542420F920800042101436D1C12E095
:1001800000200F90654A09E00F9B934205DA9E001C
:10019000F3185B00181830380F906D1C2878030096
:1001A000303B0A2BF0D328782E2803D00020C04300
:1001B0000E9027E06D1C28782A2808D13498006812
:1001C0000268001D349B18600E926D1C1AE02D28E9
:1001D00002D12D226D1C00E0002200200E900CE0C8
:1001E000002A09D10E9B4D4EB34205DA9E00F3184A
:1001F0005B00181830380E906D1C28780300303BD7
:100200000A2BEDD302A801872E78310041487844AB
:10021000FF30C01C00F07EFF002801D06D1C00E004
:10022000002602A83A214654405C682804D1287868
:1002300068280BD1622005E06C2807D128786C284B
:1002400004D1712002A93A2288546D1C17A8069087
:10025000287869460870681C33906846057828003D
:10026000253833D01C3800D10EE2001F022800D8F8
:100270000AE2133801D100F08BFD093800D103E206
:10028000801E01D100F021FE401E01D100F0CEFD04
:10029000401E022800D8F7E1001F01D100F0C6FD82
:1002A000401F00D149E1401E01D100F071FD401E08
:1002B00000D1EBE0C01E10D0801E01D100F068FD1F
:1002C000C01E01D100F064FD00F00AFE252017A930
:1002D00008701398079000F00EFE349800680468C8
:1002E000001D349908600594002C00D0BAE002A8E3
:1002F0003B21405C002800D1ADE00024E4430648E7
:100300007844143000F04EFF201A01D000F01CFE9B
:1003100000F0F1FD785F0000AC5F0000CBCCCC0CAE
:10032000641E01D000F006FE3295079D17AC002D2B
:100330000FD0329E227802A9300000F0BFFE0028C4
:1003400002D4641C6D1EF5D13296002801D000F055
:10035000FBFD3020694608700A9C002C0DDD329DA3
:1003600001236A4602A9280000F0B9FE002801D046
:1003700000F0EAFD641EF3D13295059C089D002D26
:100380000FD0329E227802A9300000F097FE00289C
:1003900002D4641C6D1EF5D13296002801D000F005
:1003A000D3FD302769460F700B9C002C0DDD329D6C
:1003B00001236A4602A9280000F091FE002801D01E
:1003C00000F0C2FD641EF3D13295059808994418D7
:1003D000099D002D0FD0329E227802A9300000F036
:1003E0006DFE002802D4641C6D1EF5D132960028E3
:1003F00001D000F0A9FD684607700C9C002C0DDDB3
:10040000329D01236A4602A9280000F068FE0028F8
:1004100001D000F099FD641EF3D1329502A8382175
:10042000405C400700D466E62020694608700198C9
:10043000002800DC5FE6019C329D01236A4602A988
:10044000280000F04CFE002801D000F07DFD641E65
:10045000F3D132954FE63F487844FF30C01F0590F6
:1004600000F049FD0E9D002D03D5200000F0BEFEDA
:1004700009E02A000021200000F0C0FE002801D081
:10048000001B00E02800089000F035FD349800685B
:100490000268001D349908600020C043002110400C
:1004A00002AA03C217A80590069A3C2302A803C813
:1004B000002904D1002802D10E9C002C13D05B1E11
:1004C00005072D0F3035EEB23A2E00DB2735D55417
:1004D00000090C072043090901D1002803D0059C1D
:1004E000D518AC42EBD33C20C01A0890D118059126
:1004F0000E99884208DA081A0A9002A8018FB94AB0
:100500000A40028700F0F7FC002901D400F0F3FC58
:1005100002A93822895C14220A40102A01D000F076
:10052000EAFC0F99079A891A0A9A891A081A002868
:1005300001DC00F0E0FC00F029FC02A83B21415C5A
:10054000002909D00024E4434B487844FF302B3085
:10055000D8E600BF8C5D00003A21405C62286AD07A
:10056000682819D06A2845D06C2806D071284FD049
:10057000742831D07A2821D06FE03498006801685F
:10058000001D349A106000297AD10024E4433B48CE
:100590007844FF301738B5E6349800680168001DCC
:1005A000349A1060002905D10024E443334878448C
:1005B000CA30A7E60D98088000F09DFC34980068CA
:1005C0000168001D349A1060002959D10024E443C9
:1005D0002A487844A63095E6349800680168001DE2
:1005E000349A106000294BD10024E4432348784416
:1005F0008A3087E6349800680268001D34990860E4
:10060000002A13D10024E4431C4878446E3079E674
:10061000349800680268001D34990860002A05D1EA
:100620000024E4431548784452306BE60D98C11716
:1006300003C200F060FC349800680168001D349A21
:100640001060002905D10024E4430C4878442C3084
:1006500058E60D98087000F04EFC34980068016868
:10066000001D349A106000290AD10024E443034895
:100670007844083046E600BF1C5C0000305C000097
:100680000D98086000F037FC34980268D21D0720EE
:1006900082433498026003CA349B1A6002AA03C2E0
:1006A0002022C80F04D007982D2117AA11540DE05D
:1006B00002A8008F204204D007982B2117AA1154BA
:1006C00004E0C00704D5079817A90A54401C0790F6
:1006D00017A807994318059326AA02A803C814ACC3
:1006E00003C468460078202101436846817061296F
:1006F00009D00E98002801D5062003E003D1672910
:1007000001D113980E9002A803C808004C0064158C
:10071000641C10D109030ED003200890613D1A2DEE
:1007200004D24D497944FF31313111E04B497944CC
:10073000FF312B310CE0002C0FD100030DD1032031
:100740000890613D1A2D15D345497944FF31133185
:100750000322180000F078FDCDE302A830C8B8A04D
:1007600003C82940002680277F03B94207D2002012
:1007700069400DE03B497944FF311539E8E7080D40
:10078000AD4E361820002900AF4D0D40AB4929432E
:1007900002AB03C36846807861280FD105983021E9
:1007A0000170811C059169460978612901D1782180
:1007B00000E0582141700798801C079002A803C8E8
:1007C0009FA430CC04400D4002D1002C00D17EE12A
:1007D00068468078612800D0BAE00E98002803D5DA
:1007E000212002E0EFFF0000401C1690169F7F1CA6
:1007F00014A803C80022002300F033FD02A830C86B
:1008000002D2802000064540361F019626A90A70B4
:1008100026A8461C002F53DD20002900002280233B
:100820005B0300F037FD4BD828004A00530D1A0037
:100830001C32002B18D0002A16DDB14B9A4205DB82
:100840001B05802212061040184310E07E48084025
:10085000110501430D000CE08C5A00008C5A000079
:10086000905A0000885A000080221206104000248E
:1008700005002000290000F027FD1490FF1F002F25
:1008800009DD00F05BFD02000B002000290000F0F4
:10089000BCFD04000D00F01D0721149A002A0ADD9A
:1008A000491E08D4401E13071B0F03701211F5E7F1
:1008B000401E00220270491EFAD5C61D002FABDC77
:1008C00026A83199711A26AA521C169B0C0099422F
:1008D00000DD1C00002C34D48C4205DA411C095D7B
:1008E000082901DB0F2100E00021230026ADED18CF
:1008F00001E0641E6D1E5B1E2E788E42F9D00F291A
:1009000004D1411CC95C491C401CC154002B04D5B6
:1009100026AA641C0198001D0190611E11D4531871
:10092000684600781D783035EEB23A2E02DB0600BC
:100930003A3EAD191D70491E5B1E0029F2D569466D
:1009400008700E98002800D4C0E0601E0E90BDE034
:1009500014A830C86D006D086B49300048436B49DE
:1009600000F0CAFD019007200199401A05DD020040
:100970002000290000F07CFB0AE04242002064498C
:1009800000F076FB02000B002000290000F0E3FDE0
:100990006A469278662A02D1019A0A3200E006225B
:1009A0000E9B9A18142A00DD142226AB30241C70EA
:1009B0005C1C02E014A803C8169A002A46DD14AB9A
:1009C00003C3169214A803C800F090FC30900646AA
:1009D0000834042530000A2100F0A2FD0F00300089
:1009E0000A2100F09DFD06003037601E07703000C0
:1009F0000A2100F095FD0F0030000A2100F090FD63
:100A00000600A41E303727706D1EE3D108341698F7
:100A1000083816900028CDDD309800F07FFC0200E9
:100A20000B0014A803C800F0F0FC0022394B00F0C2
:100A3000F3FD14AA03C2C5E702FCFFFF0000E03F7C
:100A4000FFFFFFFFFFFFFF7FFFFF0F803198201A9E
:100A500026A94A1C019902E0401E491E521C137827
:100A6000302BF9D0019169468978662902D1019924
:100A7000491C06E069468978652901D1139900E08F
:100A800000210E9B5C18A04200DA441E002C1DD4ED
:100A9000844204DA105D342801DD392100E0302180
:100AA0002300501EC51801E0641E6D1E5B1E2E78CB
:100AB0008E42F9D0392902D1D15C491CD154002B86
:100AC00004D50200641C0198401C0190019D160091
:100AD000684600786946487000F060FE406A007819
:100AE000694608700E9F20B2002803DC139C054E57
:100AF0007E4410366846807866280DD16D1C25E04E
:100B0000FF070000F057000097750000A086010065
:100B10000000F03F84D7974168468078672847D126
:100B200028B20321C943884248DBB84246DA6D1C2B
:100B300002A8008F1299C0B2084203D120B2B84275
:100B400000DA070028B23F1A00D5002728B2002893
:100B500000DDB7E00898411C08913021059A115436
:100B6000002F05DC02A8008F1299C0B2084206D0FF
:100B70000898411C089169460978059A115428B2D1
:100B800041428F4200DA7D422DB268420B907D19BE
:100B900020B2854200DA2C0024B2099422003100F0
:100BA0000598089BC01800F04FFB281B0C90D7E05D
:100BB00068464078612818D170201BE020B2B84206
:100BC00006DA02A9098F129AC9B2114200D10700B0
:100BD0007F1E00D5002768464078672802D165202F
:100BE000694607E04520694604E0684640784128A8
:100BF00001D1502048700898411C08913178059A1D
:100C00001154711C002F05DC02A8008F129AC0B28B
:100C1000104219D00898421C08926A461278059B27
:100C20001A54002F10DD641E20B2874200DA3C0007
:100C300022B20598089BC01800F006FB24B2089861
:100C400000190890381B0B900598089940186946C0
:100C50004978017029B2002903D42B214170861CE8
:100C600003E02D224270861C4D42002412A9280068
:100C70000D0005E00A2100F03FFC2970641C6D1C8A
:100C800000B20028F6DC012C08DC68464078202100
:100C90000143652902D130203070761C002C09D127
:100CA00030203070761C07E0641E12A8005D3030E2
:100CB0003070761C002CF7DC059808994018301A23
:100CC00009904DE020B229B288421EDA22B23100EA
:100CD0000598089BC01800F0B7FA24B208980019CC
:100CE00008902DB2291B0B91002F05DC02A9098F5A
:100CF000129AC9B2114206D069460978059A115470
:100D00000998401C09900C972AE02AB231000598F6
:100D1000089BC01800F098FA28B2089909180891A1
:100D2000641B002F05DC02AA128F129BD2B21A425A
:100D300005D04A1C08926A461278059B5A5421B283
:100D40008F4200DA3C0022B231180598089BC01887
:100D500000F07AFA24B2089800190890381B0B901A
:100D600002A83821405C14210140102900D0C2E0C3
:100D70000798089940180B994018099940180C9940
:100D800040180F99884200DBB5E0081A0A90B2E0DB
:100D900002AA3A20105C622808D068280ED06A287F
:100DA00014D06C281DD0712810D01AE03498016836
:100DB0000868091D349B1960C0B218E034980168B6
:100DC0000868091D349B196080B210E034980368EC
:100DD000DB1D072083433498036003CB349C2360DE
:100DE00006E0349801680868091D349B19600021E9
:100DF00002AB03C3108F1299C0B208425BD002A8A5
:100E000003C8002901D1002855D068460078202168
:100E1000014378294FD1079817A930220A54401C62
:100E2000421C07926A4612780A5444E002AA3A2009
:100E3000105C622808D068280ED06A2814D06C286C
:100E40001DD0712810D01AE0349801680868091D77
:100E5000349B196040B218E0349801680868091D95
:100E6000349B196000B210E034980368DB1D072042
:100E700083433498036003CB349D2B6006E03498A1
:100E800001680868091D349B1960C11702AB03C3D0
:100E9000002902DA07982D2109E0108F204202D0A4
:100EA00007982B2103E0C00705D50798202117AA32
:100EB0001154401C079017A80799401805906846E0
:100EC000017802A800F044F815E0139807903498D0
:100ED00000680168001D349A106017A801700AE0CC
:100EE000252017A9087013980790684600780028F5
:100EF00001D04D7007940F980799401A0A99401A2B
:100F00000899401A0B99401A0999401A0C99401AED
:100F1000019002A83821405C400701D5FFF705FA8F
:100F20002020694608700198002801DCFFF7FDF9D0
:100F3000019C329D01236A4602A9280000F0CFF8E7
:100F4000002801D1FFF7ECF90020C04335B0F0BD17
:100F5000F2B586B0040025696F2901D1082707E0A2
:100F6000084620210143782901D00A2700E01027F4
:100F70003C2603CC083C04AA03C26A46127E642ABB
:100F800003D06A46127E692A09D1002907DA04A82B
:100F900003C800220023121A8B4104A80CC004A825
:100FA00003C800290DD100280BD1206B002808D1DF
:100FB000082F3BD13820205C000737D53B26302056
:100FC00033E00294009504A830C8761E01962000F4
:100FD00029003A00FB1700F0E7FB3032D0B23A2884
:100FE00003DB6846007E51381218009882552000B5
:100FF00029003A00FB1700F0D7FB04000D0001D1D7
:10100000002C05D00298C068009989198842DCD369
:10101000029C009D082F09D13820205C000705D5CF
:10102000A85D302802D0761E3020A8553C20801BB9
:10103000A061A919E160216B884206DA081A2062D2
:10104000208F1C490140218710E000290ED538214E
:10105000615C14220A40102A08D1616B6269891A06
:10106000226A891A081A002800DD206207B0F0BD44
:10107000F8B50026104F04000D00009214E0C007E0
:1010800007D532003B002000290000F0C5FA04001B
:101090000D000098401000903000390032003B00F5
:1010A00000F0BAFA06000F0000980028E7D12000EF
:1010B0002900F4BDEFFF00000000244010B503003C
:1010C0000C001100A0689847A060002804D0E06AD6
:1010D000401CE062002010BD0020C04310BDF8B5E8
:1010E0000024002B11D007000E0014001D002178F1
:1010F000B068B847B060002809D0F06A401CF062C0
:101100000020641C6D1EF2D104002000F2BD0020FE
:10111000C043F9E7C9B202788A4203D0401C002AD2
:10112000F9D100207047F1B40168421841684808BD
:10113000131800988068C9071ED5494640181BE05F
:101140001778521C0770401C761EF9D1002C13D062
:101150001678521C89080D40032D01D11578521CB8
:10116000290271184D424119A41C05D00D78491C63
:101170000570401C641EF9D19A420FD01178521CA0
:10118000032503260E4002D11678F61C521C0C09CA
:101190000F2CD9D114780F34521CD5E700980C309D
:1011A000F2BC704780B5002801D100BF07A00649F6
:1011B0000B68002B03D022220021984701E000F0A9
:1011C00028FB222002BD0000980F0020636F6E7381
:1011D000747261696E742068616E646C65723A2025
:1011E000626164206D65737361676500431C0178FB
:1011F000401C0942FBD1C01A70472E00C9B2521ED2
:1012000005D30378401C8B42F9D1401E7047002063
:101210007047FEE770B4103A03D378C9103A78C02B
:10122000FBD2530701D318C918C001D508C908C09B
:10123000D20704D30B880380891C801C002A01D5A7
:101240000B78037070BC70478B0701D18307E1D026
:10125000124205D00B78491C0370401C521EF9D174
:10126000704730B4012464054D00EC420BD85D009A
:10127000EC4208D80C001C4364000443144304D21D
:10128000994200D1904230BC7047FCD08B42FAD1D9
:101290008242F8E730B4012464054D00EC420BD8DB
:1012A0005D00EC4208D80C001C4364000443144366
:1012B00004D28B4200D1824230BC7047FCD09942AC
:1012C000FAD19042F8E7FEE7F4464A1805D200F05A
:1012D0000FF801D580174008604700F009F8012198
:1012E000C907884200D90800404260474A1812D214
:1012F000400DC90208430121C9070843520D40218E
:101300000901521A521C06D452421F3201D4D04055
:101310007047C017704700207047FEE70100422267
:101320001201D21E004207D002D4521E0018FCD572
:10133000C10A400512058918704700000100EED56A
:101340004042F446FFF7EBFF0122D207114360470A
:101350008B4200D1824205D98446100062468C46F9
:1013600019006346DF184C18640D7F0D3AD0661CD7
:10137000760537D0E61B352E34DCDB022B43DB0A47
:101380000C0DC9022943C912202E0DDB1700203E87
:1013900006D01F00F741F3405F400026012A774145
:1013A000C01871410DD217E01700F741F2405740C5
:1013B000F3415A40B340F3405A4000268018594147
:1013C0000AD3A21C52050FD0C207012F7241170089
:1013D0004008CB0718434908641C24054208AF4164
:1013E00070416141F0BC7047641C21050020F9E7A1
:1013F0006B4010E06B40ABE7F742F3D1E943F1E714
:101400002442EFD100200021ECE7F0B40125ED07E4
:101410000F005F40EED40C00871A9C4105D2C01B20
:10142000A141D219634169406B40AE0ADF184C18E4
:10143000F442E1D2640D7F0DE2D0E61B362ED1DC02
:10144000DB022B43DB0AA4460C0DC9022943C90A5F
:10145000012E28DC04D1D6075208DF073A435B0887
:10146000EF0A76429041994114D039423BD1B619E6
:1014700040414941761C394204D1761C001849414B
:101480003942FAD0B9436746B74208D9A41B2405AC
:101490002143A7E70042EAD13642E8D1A2E7E40AB5
:1014A000E10700209EE7202E0BDD203E1F00F340C9
:1014B000F7415F40012A002257417E429841914105
:1014C0000BE01700F741F2405740F3415A40B34058
:1014D000F3405A407E42904199410A0303D2641E70
:1014E000B619404149410027641E24054208AE4117
:1014F00078416141F0BC7047CA0F00D049420310E7
:101500005A400DD004B500D3404200F009F8009ACB
:10151000D20701D34942124200D5404204BD000027
:10152000094214D088420FD30122030C01D10004D8
:101530001204002300185B418B4200D35B1A524116
:10154000F8D319001000704701000020704708B55B
:1015500000F064F908BDF0B40E005E400125ED070F
:101560002E40B446AE0ADF184C18F4423BD2F74284
:1015700041D2640D43D07F0D38D0E41BC902DB0299
:1015800029432B43CF0ADB0A0600B61A9F4104D237
:10159000641EB6197F41B6185F416812800D241889
:1015A0000018844222DAE80C0021B6197F41B61AED
:1015B0009F4102D2B6185F413F1C40414941F4D3DC
:1015C000241C21DD2405B6197F41B61A9F4105D39D
:1015D0003743C60737430026012F704161416646F5
:1015E0003143F0BC7047FCD1F74205D20020C14323
:1015F00049054908F3E704D00020C143F1E77F0D16
:10160000FAD000206146ECE72442FAD1401C614147
:101610000F03F6D30020E2E7F0B50E005E4001258F
:10162000ED072E40B446AE0ADF184C18F44208D23B
:10163000F7420ED2640D01D07F0D12D10020614619
:10164000F0BD05D1F74201D87F0D05D10020C1437F
:10165000F0BDFBD1640DF9D00020C1434905490814
:101660008FE0E419C902DB0229432B43DB0A460D54
:10167000C00231438E4630B487B295B27D432E0C02
:10168000ADB2140C7C43A419260C240425439CB24F
:101690007C43A419190C7943270CC919A4B20F046F
:1016A0003C43090C000C97B247432E0CBE1935433E
:1016B000ADB2170C4743360CBF19A6B2BF193E0492
:1016C0003543240C3E0C36199FB24743BF19BCB2B8
:1016D0003E0C89191F0C47437F183E043443390CD4
:1016E000704680B297B247432E0CBE193543ADB257
:1016F000170C4743360CBF19A6B2BF193E04354339
:10170000240C3E0C36199FB24743BF19BCB23E0CA5
:1017100089191F0C47437F183E043443390C774620
:101720003F0C90B278432E0C80190604ADB22E43C4
:10173000050CA0B22D18120C7A435019020C80B27D
:10174000240CA4189AB27A43121914042043120CE0
:1017500089181B0C7B43C91830BCEF0A394203D1EE
:10176000B61940414941641E6F12BF0DE41B0BDBEB
:10177000FF19BC4211DA240500274208AE41784126
:10178000614166463143F0BD641C05D1401C614196
:10179000CF0201D34908F4E750E75DE701487047FD
:1017A00000000000A0020020124224D0994228D953
:1017B00070B500251B4202D00C00002109E0002476
:1017C000012649186441944200D3A41A7641F8D303
:1017D0003100012601E0764109D2001864416D41D3
:1017E000A41A9D41F7D2A4185D41B619F5D3300073
:1017F00022002B0070BD1B42D8D108B500F010F8B4
:1018000008BD01D19042D3D202000B00002100207C
:10181000704780B5012000F005F801BD7047FEE774
:101820007047FEE780B500F007F8024A1100182063
:10183000ABBEFBE72600020010B500F03BF802004B
:1018400000230024E4431068A04203D011000220CA
:10185000ABBE13605068A04203D0111D0220ABBE86
:10186000536010BDF0B583B0040000F023F8A10070
:1018700047183D680026F643B54216D100BF00BFA9
:101880003D68B5420FD100BF09A00090002C01D1E6
:10189000002000E00420019003200290694601200E
:1018A000ABBE05003D6000BF00BF280003B0F0BD27
:1018B0003A74740000487047D0030020F0B585B03A
:1018C000070001D101204BE0AA2080003E1800252E
:1018D0007078002803D13570380000F027FE03200F
:1018E0007070386800F049FF002001240EE02821C4
:1018F0004143791829228C542823C854C8862B23A5
:10190000CD548D63CD630D64401CC0B279688842AC
:10191000EDD300200DE0282141437918B422520074
:1019200089184D700870CD700D614D618D61401C3E
:10193000C0B279688842EED3391D83B06846202250
:10194000FFF768FC0EBC386800F01FFF24203D54F0
:101950007470F869012802D1380001F05CFC0020A5
:1019600005B0F0BD38B50400AA20800025182878FD
:10197000012801D1022032BD01202870206800F02A
:10198000F5FE206801F0DFFB0020287032BD00006A
:10199000F8B586B00500286801F0DCFB000400D52E
:1019A000ABE0286801F0D6FB40050DD5286844213E
:1019B000415AAF4A0A4044214252280000F0FAFD41
:1019C0000021280000F0BCFC286801F0C3FB4004A3
:1019D00006D528684421415AA64A0A404421425269
:1019E000286801F0B7FB800406D528684421415AD5
:1019F000A14A0A4044214252B82080002F1828688A
:101A000001F0A8FBC0041FD528684021415A9B4A19
:101A10000A40402142522868415A994A0A404021CE
:101A200042523878012805D1002038700021280062
:101A300001F003FC280000F0DFFD28684421415A32
:101A4000904A0A404421425204240826286801F0A2
:101A500081FB000516D528684021415A08220A4317
:101A60004021425228684421415ACD4A0A4044212B
:101A7000425228684021415A214340228152280085
:101A800000F0AAFD286801F065FB000623D5286850
:101A90004421415AC34A0A4044214252387800281E
:101AA00001D000F025FC28684021415A0C43402118
:101AB00044522868415A0E43402146520120387052
:101AC00028685421405A80083C2101407960012156
:101AD000280001F0B2FB00F00EFC012B09D15020D0
:101AE000105A08183178C9004018C449401800211C
:101AF00001803178280000F04AFD28688024240203
:101B00004421415A214200D14BE74421415A0A075E
:101B1000120F02928026CB4A6B461A80029A002A44
:101B200000D0B1E0C9062CD428680088C64901401D
:101B30000C432868048028685021415A2822AA5C56
:101B4000D20089180818C149401800888005800D06
:101B50006864E96B0818E8630021280000F017FDAD
:101B60002420285C0028C8D0286C0028C5D1242057
:101B7000285C064328684C214652002024216854E2
:101B8000BBE729680988B4225200AF18B04B0A0598
:101B90001BD55021415A3A78D20089180918974A22
:101BA000891809880B40FB61FA88AC218900691803
:101BB00001F0FCFA286801886A4612880A40164338
:101BC0000680280000F0CBFC97E7214095D02868DC
:101BD00000886946098801400E4328680680286805
:101BE000864E5021415A3A78D2008918091889192D
:101BF00009880B40FB610DD0796900290AD0FA8869
:101C000001F0D4FA7869F969401878610021280058
:101C100000F0AFFC286800880005D5D42868502261
:101C2000815A401880193969002905D10188894AEB
:101C30000A40028001880DE03F2906D24A08C90700
:101C400000D5521C9102018006E04A09C90600D164
:101C5000521E91020C430480286801887E4A0A4083
:101C6000C021890151407D4A0A43028045E700BFF7
:101C7000FFFB0000FFBF0000FFDF0000FBFF0000D4
:101C8000F7FF0000FFEF000028689100405A039022
:101C9000029828214843281805900398204000D135
:101CA0000EE190002968095A6A4612880A4080218C
:101CB00011432A6811520598B42149004718387B0E
:101CC000002814D128685021415A3A78D200891846
:101CD00009184A4A891809888905890D6A461180B8
:101CE00000D1D4E069460B88FA887969CDE058497B
:101CF000F878022800D083E00398BA6904920200C1
:101D000040231A406B461A702A68019240043878C2
:101D100034D55023D25AC300D218019BD218CB1C01
:101D2000D2181288114001910499019A914202D36C
:101D30000499891A00E00021B96100290AD12968B3
:101D4000800008180188444A0A40A1085140434ACB
:101D50000A43028068460078002809D0286839784C
:101D60008900401801883E4A0A403E4911430180DB
:101D7000019800283ED083B23A8937E05023D25AE6
:101D8000C300D218019BD2181C4BD21812881140E4
:101D900001910499019A914206D30499891A04E0A9
:101DA000FFF700007FFF00000021B96100290AD180
:101DB0002968800008180188274A0A40A108514074
:101DC000264A0A43028068460078002809D128681C
:101DD0003978890040180188214A0A405901114385
:101DE00001800198002805D083B27A897969286832
:101DF00001F0DCF901986946088048E0060400001B
:101E0000387880002A68125A154B1340154A1A4335
:101E10002B681A5238782A688300D25A52042A68EA
:101E200022D55023D25AC00010182A688018CA1C24
:101E30008018008801406846018028D00B463A8906
:101E400021E000BF8F0F00000F8F00000204000090
:101E5000FF030000FF8300008FBF000080800000B0
:101E60008F8F0000C08000005023D25AC00010188D
:101E70002A688018C54A8018008801406846018099
:101E800005D00B467A897969286801F08FF9684690
:101E90000088F9690918F96179696A461288891810
:101EA0007961B969002907D03969884204D33900BA
:101EB000286800F069FE03E03978280000F059FB3B
:101EC0000398064066D0059E283628680299890046
:101ED00040180188AE4A0A40210011430180AD48F4
:101EE000F178022930D00021B161039949061DD54E
:101EF000717800290FD1296850228A5A89183278BE
:101F0000D2008918A44A89180A88104008800888D5
:101F100004430C80EDE50129FCD128685021415A89
:101F200040183178C90040189B49DFE52A68110044
:101F30007378002B00D0D0E55023D25A891832781C
:101F4000D2008918914ADEE7B269296802910399A3
:101F5000C90520D4317802985023C05ACB00C0184C
:101F6000029BC0188C4BC01800888005800D9042E1
:101F700001D2121A00E00022B261002A00D1B9E5B4
:101F8000716909187161F1690818F06131002868F8
:101F900000F0FAFDB1E503996B46198069460F8898
:101FA00061080F4069460988490631781970694609
:101FB000097800D4BAE0C900019102995023C95AA6
:101FC000019BC918029BC918734BC91809888B0556
:101FD0009B0D934201D2D11A00E00021B16100298A
:101FE00046D1717800290FD1296850228A5A891860
:101FF000019A8918684A89180A8802400A800A8862
:10200000230013430B800BE0012929D129685022BA
:102010008A5A8918019A89185F4A891800220A8009
:1020200029680A007378002B0ED15023C95A511821
:102030003278D2008918554A89180A8810400880D9
:10204000088804430C800BE0012B09D15020085A6A
:1020500010183178C90040184C49401800210180FF
:102060003178280000F093FA002F00D137E1C8E062
:10207000002F0DD069460978890000912968009ADF
:10208000895AAB4A0A40AB4911432A68009FD15391
:102090002421715C012900D021E17169C9180091E6
:1020A000F169C918F1613169326A8A4203D30B00C0
:1020B000D11A316206E00021002A01D013003162FA
:1020C0002422B15472783449002A1FD12A6850273B
:1020D000D75BD2193778FF00D2195118002B04D1E1
:1020E0000A881040088008880DE03F2B06D2580867
:1020F000DA0700D5401C8002088012E05809DA0691
:1021000000D1401E800204430C800AE0012A08D15D
:1021100028685022825A80183278D20080184018DD
:102120000380009870619BB23289D4E0C9000191AC
:1021300002995023C95A019BC918029BC918134B15
:10214000C91809888905890D02910021029B9A42CC
:1021500001D3D21A00E00022B261002A5CD1727869
:10216000002A1BD12A685023D35AD218019BD218B7
:10217000094BD218009212880240009B1A80009AE4
:10218000138822001A43009B1A8012E00604000004
:102190000F8F0000FF83000002040000012A2AD1F3
:1021A0002A685023D35AD218019BD218624BD218F6
:1021B00011802A68009201927378002B0FD1009948
:1021C0005023D25A89183278D20089185B4A89186C
:1021D0000A8810400880088804430C800BE0012B1B
:1021E00009D110465023D25A80183278D200801874
:1021F000524A801801803178280000F0C8F9002F79
:102200006DD128683178890040180188484A0A4011
:1022100048491143018062E0002F0DD16A461278CF
:10222000920000922A68009BD25A414B1340414AC7
:102230001A432B68009FDA532422B25C012A4ED144
:102240007269029BD2180092F269029BD218F26165
:102250003369326A9A4202D3D11A316207E0002A06
:1022600001D1029B01E0130031622422B15429689C
:102270000A007778002F1FD15027C95B5118327898
:10228000D20089182D4A8918002B04D10A881040E1
:10229000088008880DE03F2B06D25808DA0700D5E1
:1022A000401C8002088012E05809DA0600D1401E66
:1022B000800204430C800AE0012F08D15020085A04
:1022C00010183178C90040181C4940180380009844
:1022D00070619BB272890099286800F055FF2868E8
:1022E00031788900401801888D4A0A403021B9E4CC
:1022F000280000F071F9286800F02CFF800509D54E
:1023000028684421415A874A0A4044214252280001
:1023100000F049F9286800F01DFFC00506D52868BF
:102320004421415A804A0A404421425207B0F0BD3C
:102330008F8F000080C0000002040000060400002F
:1023400010B5AA22920084182278012A01D1022015
:1023500010BD0122227024228154006800F0ECFE9E
:102360000020207010BDF1B507250C002C40282658
:1023700074430019012600240F0602D52830467048
:1023800003E0B4277F00C01944700D40057002615E
:10239000C3704178002901D00178C181022B00D19E
:1023A00004710099AA2292008D182978012901D17F
:1023B0000220F2BD2E7001000098006800F0F0F9D4
:1023C0002C700020F2BD70B50A00072319402824A4
:1023D0006143411801260024150602D528314E70AC
:1023E00003E0B4256D0049194C7013400B70AA220C
:1023F000920085182A78012A01D1022070BD2E7022
:10240000006800F017FB2C70002070BD70B5140040
:1024100007250A002A40282672438218B42676002F
:102420009219546193610023D36153700D4015706C
:102430000068110000F0A8FB002070BDF8B5140082
:1024400007250A002A402826724382182832546140
:10245000936101242427D45513620023D36154705F
:102460000D4015700068110000F08EFB0020F2BDD9
:1024700070B50A000723194044688C4201D201203C
:1024800070BD01260024150605D52825694341188D
:1024900028314E7007E01100282569434118B42502
:1024A0006D0049194C708E7013400B70AA22920077
:1024B00085182A78012A01D1022070BD2E7000688B
:1024C00000F0ECFD2C70002070BD70B50A00436870
:1024D0000C07240FA34201D2012070BD072319402D
:1024E00028246143411801260024150602D528310D
:1024F0004E7003E0B4256D0049194C708C70134088
:102500000B70AA22920085182A78012A01D1022094
:1025100070BD2E70006800F0D9FD2C70002070BDD9
:10252000BF8F0000FFFD0000FFFE0000006884492F
:10253000884200D0704780B58020000481490A6835
:1025400002430A60096808400090009800220021B8
:102550001F2000F090FE1F2000F091FE01BD80B50D
:10256000AC2189004118BC229200805800F0E5FEA1
:1025700001BD80B50A0028235A438218BE235B00A0
:10258000D258BC239B00C05800F004FF01BD80B5A9
:102590000A0028235A438218D26BBC239B00C058E0
:1025A00000F03AFF01BD80B5BC218900405800F021
:1025B000D1FF01BD10B50400A068022801D001F0D0
:1025C000E5F9BC20800024180121206800F0ACFF50
:1025D000206800F080FF10BD10B50400BC20800012
:1025E000205800F0A4FFA069002804D056480168D4
:1025F00006220A43026010BD10B50400A06900283D
:1026000006D05148016806229143016001F064F947
:10261000BC208000205800F093FF10BD10B50100D1
:102620004A48BC2292008150303A8C1820604449BC
:102630000160082141600221816001610021816106
:10264000C1610162FFF73AF9002801D001F09EF95B
:10265000182300220021206800F0BCFD582300222E
:102660008021206800F0B6FD982300228121206897
:1026700000F0B0FDD82300220121206800F0AAFD5F
:10268000002010BD80B5B02189004058FFF76AF9DD
:1026900000F061F802BD10B514001A002300B02448
:1026A000A4000059FFF75FFE00F055F810BD80B59B
:1026B000B02292008058FFF786FE00F04CF802BD71
:1026C00080B5B02292008058FFF7D2FE00F043F8A8
:1026D00002BD80B5B02292008058FFF7F6FE00F0F0
:1026E0003AF802BDB022920080584A06520E2823C2
:1026F0005A438018090601D52A2101E0B521490075
:10270000405C704780B5B02292008058FFF718FEF9
:1027100000F021F802BD10B5B024A4000059FFF765
:102720008DFE00F018F810BD10B5B024A4000059BB
:10273000FFF76CFE00F00FF810BD05487047000071
:10274000005C00401C10024010ED00E0D8030020A7
:102750004C0E0020704701000020002904D00229FF
:1027600001D10120704702207047FEE74030002170
:102770008180A9490180002070474021415AA74A21
:102780000A4040214252002070470EB440300121DF
:1027900001800021018081800182002003B0704708
:1027A000FCB500226B465A700A78920083181A888A
:1027B0009B4C1440CA78002A05D0022A12D009D3B3
:1027C000032A04D00BE022008024A40005E02200AC
:1027D000C02401E022008024E400144302E001222E
:1027E0006D466A708F4A14431C800B789C00041954
:1027F00025888D4E2E401E43164326800B786C464E
:102800002370C0239B012024884D0E7B002E6E4632
:10281000367866D1F6000196CF88854E3E404F78D7
:10282000002F1FD05023C35AC318019FDB19670123
:10283000DB191E800B789B00C3181E88760605D511
:102840001F88794E3E40C64F37431F800B789B0050
:10285000C018C9780129018800D1A4E00D406C405E
:102860002243D4E05024045B0419019D64195509E6
:10287000641926805024045B04190D78ED00641956
:10288000B84D64190D6980263602002D05D12588C2
:10289000B54F2F40278025880DE03F2D06D26E08CA
:1028A000ED0700D5761CB502258006E06F09ED0620
:1028B00000D17F1EBD022E4326800C78A40004198F
:1028C00025886D0405D52588574E2E40A74D3543E4
:1028D00025800978890040180188A54C0C40634088
:1028E00094E0B60086190196CE78022E019E3788B4
:1028F00006D14D4E3E409F4F3743019E378004E046
:102900009D4E3E401643019F3E805026865B6F469B
:102910007E806E46768887190E78F600BF196601AC
:10292000BF19BC460F89424E3E4067463E80502646
:10293000865B86190F78FF00F6195709F719BC4610
:102940004F893B4E3E4067463E800E78B600861962
:1029500001964E78002E29D1019C2688324C7604AF
:1029600006D5019E37882740804E3E43019F3E801A
:102970000E78B600861901963688760606D5019E31
:1029800036883440764E2643019C26800C78A4007D
:1029900004192688764F37407B40134323800978FB
:1029A0008900401801880D402A4330E0019B1E88B1
:1029B0001D4B760406D5019E37881F406B4E3E4363
:1029C000019F3E800E78B6008619019636887606FD
:1029D00006D5019E36883340614E1E43019B1E8002
:1029E0000B789B00C318CE78012E05D01E88354089
:1029F0006C4014431C8003E01C88254015431D8057
:102A00000978890040180188594B0B401A4302800D
:102A100068464078F6BD000080BF00007F4000009F
:102A20008F890000808000008F8F0000BF8F000022
:102A3000FEFF0000F2B582B00978890041180091CC
:102A4000029949786A461171494D4C494C4A444BA8
:102A50004C4C029E367B002E6E46367917D1002EE6
:102A60000AD0009D2D886D063CD5009D2D882C40F8
:102A70002343009C238035E0009A1288520465D5D8
:102A8000009A12881440394A2243009B5DE0002ED0
:102A9000009E36882ED1760406D5009E37882740C2
:102AA000324E3E43009F3E80029E3678B600861925
:102AB00000963688760605D5009E368826401E4349
:102AC000009F3E80029E3678B600861937883C40CB
:102AD00023433380029B1B789B00C3181C8825402E
:102AE0000D431D80029B1B789B00C01803881A4071
:102AF000114332E06F46BE806E46B688760406D536
:102B0000009E37882740194E3E43009F3E80029E1C
:102B10003678B600861900963688760605D5009E6A
:102B2000368826403343009E3380029B1B789B00EF
:102B3000C3181E8834400D4E26431E80029B1B780E
:102B40009B00C3181C8822400A431A80029A1278FC
:102B50009200801802881540294301800020FEBDA4
:102B6000C080000006040000FF83000080C0000059
:102B70008FBF0000808100008F8E000080800000E9
:102B8000BF8F00008F8F0000F1B584B00F003B7B3A
:102B90007878049C80252D02012800D058E13869FE
:102BA00002903E69B869864200D90600002B10D118
:102BB000B3B2FA887969204600F0E6FA0498502109
:102BC000405A20183978C9004018B8494018068082
:102BD00035E138786946087004980978890040180A
:102BE0000190386AF978022900D007E10299814200
:102BF00000D3F2E001990988AD4A0A40AD4911437A
:102C0000019A1180801B38627878F107C90F009112
:102C10003978049A8B00D25A52066FD50194BB4A78
:102C200000281FD104985023C05A2018C90040180A
:102C30008018002E05D10188B54A0A40028001881B
:102C40000DE03F2E06D27108009A002A00D0491CE0
:102C5000890205E07109F20600D1491E8902294363
:102C6000018009E0012807D104985023C05A201898
:102C7000C900401880180680B3B27A89796904982F
:102C800000F082FA786980197861386A396981427E
:102C900001D2801B01E00600002038627978834869
:102CA000002920D104995022895A61183A78D2001B
:102CB00089180818002E05D10188954A0A4002801B
:102CC00001880DE03F2E06D27108F20700D5491C9D
:102CD00089020180ADE07109F20600D1491E890226
:102CE0000D430580A5E00129FCD104995022895AA1
:102CF00061183A78D2008918081899E06B4A0028C0
:102D00001FD104985023C05A2018C90040188018B9
:102D1000002E05D101887E4A0A40028001880DE01C
:102D20003F2E06D27108009A002A00D0491C890261
:102D300005E07109F20600D1491E8902294301808C
:102D400009E0012807D104985023C05A2018C9006F
:102D5000401880180680B3B23A897969049800F067
:102D600013FA786980197861386A3969814201D229
:102D7000801B01E006000020386279786348002952
:102D800020D104995022895A61183A78D2008918C2
:102D90000818002E05D101885D4A0A40028001888A
:102DA0000DE03F2E06D27108F20700D5491C8902BA
:102DB000018034E07109F20600D1491E89020D43F9
:102DC00005802CE001292AD104995022895A6118E2
:102DD0003A78D2008918081820E006000198008887
:102DE000AC490140AC48084301990880049850213F
:102DF000405A20183978C900401817E0801B386203
:102E000068460078C000019909884906049909D5E7
:102E10005022895A611808183C4940180680B3B2FC
:102E20007A8908E05022895A611808181F49401809
:102E30000680B3B23A897969049800F0A5F904983C
:102E400039788900401801889F4A0A40302126E0DD
:102E500000210122002B3ED1BB693869984201D282
:102E6000191A00E01800B96104995023C95A611871
:102E70003B78DB00C918254BC91800281CD10888ED
:102E8000234A02400A80088805430D800498397857
:102E9000890040180188A74A0A40C0218901514091
:102EA0007D4A0A430280002005B0F0BD0204000004
:102EB0008F8F0000808100003F2806D24308024027
:102EC00000D05B1C98020880E0E74209C00600D1F0
:102ED000521E9002D8E7FB78022B73D11F210C4BB6
:102EE000002827D15026A05B20183E78F6008019D4
:102EF0009C4E80190090386900280BD100980088FA
:102F00001840009E30800098008810E00604000001
:102F1000FF8300003F2805D24608104000D0761CF1
:102F2000B00205E04609084000D1761EB0022843F1
:102F3000009E30807878002821D104985026805B4C
:102F400020183C78E4000019874C041938690028DF
:102F500004D120880340238020880DE03F2806D23A
:102F60004108024000D0491C8802208014E0420938
:102F7000014000D1521E9002054325800CE001283B
:102F80000AD104985021405A20183978C9004018B5
:102F90007549401839690180F869002811D00498F2
:102FA0003978890040180188704A13000B40934219
:102FB00001D00A4005D101886D4A0A406D4911438C
:102FC000018063E7012B62D1BB693E699E4201D259
:102FD000991B00E01E00B961324001921F21664A30
:102FE000002823D104985023C05A20183B78DB00D6
:102FF000C0185C4BC0180090002E06D1008810400D
:10300000009B1880009800880DE03F2E06D27008C3
:10301000019B002B00D0401C800205E070090E428D
:1030200000D1401E80022843009B18807878002839
:1030300020D104985023C05A20183B78DB00C018D8
:10304000494BC018002E06D101880A400280018831
:103050000D4305801AE73F2E06D27108019A002A17
:1030600000D0491C8902ABE77209314000D1521EE1
:103070009102EDE7012809D104985021405A201807
:103080003978C9004018384940180680FEE601200A
:103090000AE700008F8E0000808000000A7892000E
:1030A0008018364A49780029018803D0064B0B4026
:1030B000102103E01F4B0B408021490159400A4376
:1030C0000280002070470000BF8F000030B50A7BEF
:1030D000002A2CD10A7892008318284A244C4D7873
:1030E000002D1D8811D06D0604D51D882C40214D62
:1030F00025431D80CB78012B19D009788900401811
:1031000001881F4B0B4020210EE06D0404D51D8863
:103110002C401C4D25431D800978890040180188EA
:10312000044B0B40C021890159400A430280002012
:1031300030BD00008FBF0000002902D180214C2249
:103140008152002070475821415A802212020A43BE
:10315000582103E04421405A704740214252002048
:103160007047000002040000060400004040000018
:103170008F8F0000C0800000FF830000808000006F
:10318000BF8F000080C0000010B580188022D200E0
:1031900080185B1C5A0807E00B784C7824021C430B
:1031A0000480801C891C521EF6D110BD10B58018F9
:1031B0008022D20080185A0806E00488801C0C7017
:1031C000240A4C70891C521EF7D1DA0701D50088F9
:1031D000087010BD10B50C0606D54907490F282404
:1031E00061434018283005E028244C430019B421DD
:1031F00049004018002A03D100210173C38004E074
:10320000012101730381190C4181002010BD582058
:103210000A52002070470168B822920080180122EB
:103220008260002303705420085A024354200A523B
:10323000085A022202435420EAE7704710B5C20040
:1032400018231340FF249C40E2438907090E99404C
:10325000030004D418489B089B00C01806E0174BD5
:103260000007000F083880088000181803681A400B
:103270001143016010BD80B5FFF7E0FF01BD010003
:1032800005D40121C006C00E81400D480160704781
:1032900010B5401E80214904884201D3012010BD91
:1032A000084C606003210020C043FFF7C7FF0020E7
:1032B000A0600721216010BD00E400E01CED00E0EB
:1032C00000E100E010E000E010B5002801D102208C
:1032D00010BDA7239B00C3189C69002C01D00024BB
:1032E0009C61002900D05961012119700270FFF71B
:1032F00095F9002010BD02000020002903D0AD2365
:103300009B00D15070470220704780B5FFF7BAF993
:10331000002002BD10B50224AD2292008258002A7E
:1033200004D012689047002800D10024200010BD6E
:1033300080B5AD22920082581AE138B50400AA2067
:1033400080002518280000F05DFDA52080002018D1
:1033500001210160418B4160017DC806C00E03D090
:1033600002280BD005D30EE02900200000F036FB28
:103370000EE02900200000F075FC09E02900200083
:1033800000F09AFC04E0802001402000FFF798F94B
:10339000002032BD38B504001000A5229200A31809
:1033A0000A002CD11968032920D1B02149006118E5
:1033B0004A680D68AA420BD2AB1A0B60934200D246
:1033C0001A0092B20100200000F07FFD002032BD03
:1033D000196A0869002805D0187A032802D120004C
:1033E00009698847200000F074FDEFE70529EDD159
:1033F0000020186000212000FFF762F9E6E71A6A52
:103400009069002806D0187A032803D12000926919
:103410009047DBE7022032BDF8B504001000A5227A
:103420009200A5180A0049D129680026022937D13F
:10343000216A626A00928A4207D28A1A226292B292
:103440000100200000F02CFD11E0E7693800114672
:10345000FEF766F8002911D1009887420ED36868FC
:1034600087420BD20022200000F01AFD6E6000237C
:10347000002200212000FFF757F919E0296AC868E7
:10348000002805D0287A032802D12000C96888477F
:1034900080212000FFF714F9200000F026FD07E04E
:1034A000042901D0002903D180212000FFF708F969
:1034B000287B012800D12E730020F2BD2A6A5069B2
:1034C000002806D0287A032803D1200052699047AB
:1034D000F2E70220F2BD70B5040040230022002173
:1034E000FFF7D9F8AC2040002018012505604026E0
:1034F000C6604023002280212000FFF7CCF8A561A0
:103500006662A5208000221815720020106060609D
:103510001061506A002805D06168C9B22000126AA3
:1035200052689047002070BD017400207047A721A9
:103530008900401801784170042101700020704713
:10354000A721890040180178042901D14178017030
:103550000020704780B5A721890041180A78032A06
:1035600004D18969C969002900D08847002002BDBB
:1035700052689047002002BDF8B586B000F0C2FC4A
:1035800000F0AAF91421684600F0E6FC8021090346
:10359000CE4802680A43026002681140059105990D
:1035A0008021C90302680A43026002681140059144
:1035B00005998021890202680A430260026811406D
:1035C000059105998021C90202680A4302600068DA
:1035D000014005910598C0273F0200223900BC48F0
:1035E00000F08AFD00220721BA4800F085FD812500
:1035F0002D02002229009020C00500F07DFD8020D2
:103600008001009000240194012602966946B0488A
:1036100000F0AAFC00970196029603946946AC4814
:1036200000F0A2FC052000900194029669469020CB
:10363000C00500F099FC07200090019602960394C3
:103640006946A44800F090FC009501960296039408
:1036500069469020C00500F087FCC62080000090DD
:103660000194029469469B4800F07EFC2020009063
:10367000019402966946974800F076FC00F04EFDF2
:1036800068460021002200230EC0B44DB4482860D3
:103690006C60AC60EC602E6104276F61AC61FF2050
:1036A000C230E8612C6224216C54AE62280000F024
:1036B00061FD002801D000F069F90320009030037B
:1036C0000190000402906946280000F00DFE0028D9
:1036D00001D000F05BF900976946280000F004FE75
:1036E000002801D000F052F9062000906946280019
:1036F00000F0FAFD002801D000F048F99948922125
:103700004900691888669848922149006918C86676
:10371000922040002818046792204000281846672D
:103720009220400028188467922040002818C4671F
:10373000D22040002F183C607C60BC6018382818EC
:1037400000F058FE002801D000F020F90021C6202A
:103750004000281800F0A8FE002801D000F016F95B
:103760000021C6204000281800F0BBFE002801D030
:1037700000F00CF97D4878637D48B863FC633E64D3
:103780007C64BC64FC643C657C65EC2040002E18C5
:10379000300000F02FFE002801D000F0F7F80021E3
:1037A000300000F081FE002801D000F0EFF8002189
:1037B000300000F096FE002801D000F0E7F86D48D8
:1037C0002864822040006864AC64E020C000E864A3
:1037D0002C656C6580208000A8651820E8652C6643
:1037E0006C66AC660727EF662C67082068672800C0
:1037F000403000F09FFE002801D000F0C7F82E00F6
:10380000A4365D483060822040007060B4603802A9
:10381000F0603461746180208000B0611820F06134
:1038200034627462B462F7623463082070633000FB
:1038300000F080FE002801D000F0A8F84F48706624
:10384000E1204002B066F466346774670C20B0670C
:10385000F4674B480460446084608420400028186A
:1038600000F0ECFE002801D000F090F889208000E4
:103870002C1800F054FB206100F055FB606100F053
:1038800057FB206000F057FB606000F057FBA06022
:103890003C4801F0C3F800BF3DA001F0BFF821682B
:1038A0003FA001F0BBF8616842A001F0B7F8A16841
:1038B00045A001F0B3F8012211029020C00500F0EC
:1038C0001BFC01F091F901F02CFAFCE71410024006
:1038D000000800480004004830B595B0302109A820
:1038E00000F03AFB684600210022002300241EC09D
:1038F000142100F031FB1320099001200A900C9054
:103900000E9010200D900F9002241194000312903D
:1039100000251395149509A801F0A0FA002801D0FC
:1039200000F034F8072000900194029503950121DE
:10393000684601F05FFC002801D072B6FEE712482D
:103940000490069507958020089004A801F028FDB2
:10395000002801D072B6FEE715B030BD90090020F6
:1039600000240140005400400E090020005800408F
:103970005D3E3020003001400038004000380140FA
:10398000B40A0020646400082100020072B6FEE759
:10399000436F6E74696E75652E2E2E2E200A0D00F3
:1039A0005549445B305D2025642E2E2E2E200A0DB5
:1039B000000000005549445B315D2025642E2E2E09
:1039C0002E200A0D000000005549445B325D202581
:1039D000642E2E2E2E200A0D00000000F8B50400E3
:1039E0000E00A7208000251830786021014009D002
:1039F000202901D0402926D131002000AA699268EF
:103A00009047BBE000200227717809291BD802A249
:103A10004900525A974400BF0C0238021A012E0284
:103A20001A01240114001A01E4016C01694608809E
:103A30007088010A012976D0022968D003292DD087
:103A4000062923D0072974D1207C002871D168462B
:103A5000A969096B884707214170694609880029CF
:103A600010D0F188002910D069460988F288914267
:103A700000D911006A46118069460A8801002000B9
:103A800000F000FAF088002878D1A9E0207C002816
:103A90004FD16846A969496B8847DEE7C0B205285F
:103AA00047D801A1095C8F44544434241404686944
:103AB0008269002A3DD06946207C9047CDE768693D
:103AC0004269002A35D06946207C9047C5E768697D
:103AD0000269002A2DD06946207C9047BDE76869BD
:103AE000C268002A25D06946207C9047B5E76869FE
:103AF0008268002A1DD06946207C9047ADE768693E
:103B00004268002A15D06946207C9047A5E7A9693C
:103B1000207C0028684603D1896A884747709CE763
:103B2000C96A8847FAE76946207C6A691268904743
:103B300093E73100200000F079F91FE0B0880028F9
:103B4000F7D1F0880028F4D170888028F1D240069F
:103B5000400E6946087028780328EAD06846007845
:103B6000A870684601782000FEF7CCFD200000F028
:103B7000B0F968460078002802D02F700020F2BD0E
:103B80000127FAE77188364A117011780A00022A73
:103B9000CFDA2B78022B19D0032B25D1002905D1A0
:103BA0002F7060602000FFF7C3FB19E061688A4254
:103BB00016D0C9B22000FFF7BBFB2948017861602D
:103BC0002000FFF7A7FB02280AD1B2E7002907D09F
:103BD0006260032028702000FFF79CFB0228A8D019
:103BE000200000F076F9C9E73100200000F01EF94E
:103BF0001B4801782000FFF79BFBBFE7F1880129F4
:103C000097D12978491E012907D9891E91D101220E
:103C1000211D200000F036F9B0E7A060012221004C
:103C20000831F6E72878401E022882D8F08802285A
:103C3000ECD10120A968002900D00320E060022215
:103C400021000C31E5E77088012897D1A860C7E70B
:103C50002978491E0229E8D871880129F5E7000072
:103C6000A10F002038B505000C002078602101402C
:103C700003D0202901D0402918D1A72080002A187C
:103C80001078401E022811D8A088C0B202280DDA90
:103C900021002800926992689047E188002909D1A3
:103CA000002807D1280000F014F903E021002800C3
:103CB00000F0BCF8002032BDF8B504008B88DBB200
:103CC0000878A7229200A21860256026064008D036
:103CD000202E01D0402E78D1200092699268904722
:103CE00076E00540202D04D120009269926890472B
:103CF000F2BD7F204D78002D37D0012D15D0032D3A
:103D000063D11078022816D003285ED14888002895
:103D100027D1002B25D0802B23D0C888002820D184
:103D200019002000FEF7CCFC1BE01278022A02D01A
:103D3000032A0DD049E0002B47D0802B45D0190035
:103D40002000FEF7BDFC80212000FEF7B9FC3FE01B
:103D5000498800293CD11900014202D02000FEF719
:103D6000B8FC200000F0B5F832E018401425684394
:103D70002618AA20400035181800802738406F46C2
:103D8000387000201278022A02D0032A11D01CE0D9
:103D9000002B01D0802B18D169460978002902D068
:103DA0003100143100E029000860200000F06AF8BA
:103DB0000EE01A07120F14277A43A2186F463F78B5
:103DC000002F07D09269002A0ED1200000F02EF8B3
:103DD0000020F2BDAC2676009259002AF5D0002BC7
:103DE0000CD0802B03D109E035001435F7E719001A
:103DF0002000FEF777FC002800D001202860022276
:103E00002900D2E70A7802704A7842708A78CB7823
:103E10001B02D21842800A794B791B02D218828089
:103E20008A79C97909025118C180704710B5040018
:103E30008021FEF745FC00212000FEF741FC10BD6B
:103E4000002800D1704770B504000023002501E070
:103E50006D1C641C2678002EFAD12D06EC0DA41CD6
:103E6000148012780A7003224A70022206E0D5B24A
:103E70004C55401C521CD5B24B55521C0478002C9A
:103E8000F5D170BD10B513000222A524A400025183
:103E9000C36103620A000021FEF73DFC002010BD53
:103EA00080B513000A001BE010B513000322A524FF
:103EB000A4000251AE2252008218136053600A001F
:103EC0000021FEF731FC002010BD80B513000A0070
:103ED00012E080B50421A522920081500023002227
:103EE0000021FEF718FC002002BD80B50521A522A7
:103EF00092008150002300220021FEF715FC0020D3
:103F000002BDFEE780B50F48016810220A43026037
:103F1000002001F0CBFA01F0EBFA002002BD0A48C4
:103F20000068000C7047084800680005000D7047E5
:103F300006480068704706480068704705480068F2
:103F4000704700000020024000580140ACF7FF1FFE
:103F5000B0F7FF1FB4F7FF1F002200BF094202D0D5
:103F6000491E4254FCD17047FFB500220F23029333
:103F70002CE0052402E0634DA842FAD16D462D786D
:103F8000AC403443019D2C605F4C2668DC432640E6
:103F90004D68ED0300D51E435B4D2E606E682640D4
:103FA0004F68BF0300D51E436E60AE6826404F6861
:103FB000FF0200D51E43AE60EE6834404E68B60284
:103FC00002D526001C003443EC60521C0B681C0018
:103FD000D44000D18FE0012494402340F5D0550017
:103FE0000327AF40FE4301964E68B707BF0F012F6E
:103FF00003D0B607B60F022E0ED18768019E3E4051
:10400000CF68AF40374387604668A6434C68E706F1
:10401000FF0F97403743476094006E4674700C79E9
:10402000A407A40F032C26D0C468019E26408C68E8
:10403000AC403443C4600C79A407A40F022C1AD1FD
:10404000D408A4000419266A03966E4677781C26C5
:104050003E406F463E70039EB446029F6E463678E1
:10406000B7406646BE43B4460F696E463678B740E1
:1040700066463743276207680324019E3E404F6827
:104080002740BC462F006546BD40354305604D685E
:1040900026042E4099D001251C4E36682E431B4F16
:1040A0003E603E682E400196019E194E9708BF0063
:1040B000F6190196366803966E4677780C263E40D0
:1040C0006F463E70039EB446029F6E463678B740F8
:1040D0006646BE439027FF05B84201D100244DE754
:1040E0000C4FB84201D1012448E70B4DA84200D043
:1040F00041E7022442E7FFBD002A01D081617047F9
:1041000081627047000C0048000401401810024012
:1041100008000140000400480008004810B5114C98
:10412000002211492000FFF7CFF8002801D0FFF747
:104130002DFC0E492000FFF7DEF8002801D0FFF724
:1041400025FC0B49200001F0FBFB002801D0FFF704
:104150001DFC2000FFF7D9F8002801D0FFF716FC5E
:1041600010BD00BFCC060020500200207C010020C2
:104170006C010020F8B504000025002C01D10120BD
:10418000F2BDA06B002805D1E0633421605420000B
:1041900001F0C3F910210122A06B084003D123686C
:1041A00004209E68064000D091E0A76B4B4E3E4035
:1041B00002273743A7639E68B607B60F012E05D1C5
:1041C0001E6816400FD1DE6836040CD4DE6818274E
:1041D000BE43A7683743DF6023681E69B600B60890
:1041E000676837431F612368DE683D4F3740DF60F3
:1041F000A36A012B01D0860200E000262369022B6E
:1042000001D1009000E00095A37E207E8003677EB0
:10421000FF030743580338430643E0683043009EDA
:1042200006432420205C40003043E67E012E0CD162
:10423000002B03D103000803184306E0A36B2026DC
:104240001E43A663E36B1343E363E369FF26C236B1
:10425000B34203D00600206A184330432368DE6867
:104260000643DE60E36A0E06B3420DD0012B0BD08D
:10427000022B09D0032B07D0042B05D0052B03D02C
:10428000062B01D0072B0CD123685E690727BE439C
:104290005E6123685E692C27E75D7F077F0F3743E8
:1042A0005F610223DB432668F6680E4F3740874282
:1042B00005D1E563A06B03401A43A2630BE0A06B3A
:1042C00003401943A163E06B1043E06302E0A06B7D
:1042D0000143A16301252800F2BD0000FFFEFFFF9E
:1042E0001902FEFFE7FF3F83F8B504000025002612
:1042F00000953420205C012801D10220F2BD01206C
:104300003423E054226893685B075CD40B689840C0
:10431000009032484B68324FBB42936A009F44D0B2
:104320001F439762E26A80235B059A421FD0012AED
:104330001DD0022A1BD0032A19D0042A17D0052A1F
:1043400015D0062A13D0072A11D022688B68576926
:104350007F077F0FBB420AD053690727BB435361D6
:10436000226853690F7A7F077F0F1F4357610A68DE
:10437000102A17D0112A2BD18022D20303681A43A6
:1043800002600868102823D1164800681649FDF716
:10439000C7F80A21484300900098002818D00098D8
:1043A000401EF8E780221204E8E7BB4393620968E5
:1043B000102906D011290BD10C4902681140016067
:1043C00006E00B49F9E7A16B20220A43A26301260C
:1043D000342025543000F2BD0000000008270140C1
:1043E000011000004401002040420F00FFFFBFFF0A
:1043F000FFFF7FFF70B5040001D1012070BD2500D3
:10440000403500266878002803D12E70200001F086
:10441000AFF8242068702068016801229143016090
:1044200060681E4901402068016121681C488A6853
:1044300002408A60E1680129A16801D1C24301E01C
:10444000842212020A4321688A60E168022903D1AA
:10445000802109012268516021684A68114B134389
:104460004B602168CA681040C860206961690143D7
:10447000A069000208432168C860E069216A01431D
:10448000206801602068016801220A4302606E60B2
:10449000202068702663AE70002070BDFFFFFFF023
:1044A000FF7FFFFF0080000270B5020040325378AA
:1044B000202B14D14023C35C012B10D00123137097
:1044C00024245470046825689D4325600468256889
:1044D000164E2E4026600468256829431CE0022001
:1044E00070BD70B5020040325378202B12D14023AA
:1044F000C35C012B0ED00123137024245470046874
:1045000025689D43256004682568094E2E400902F0
:10451000314301E0022070BD2160006801680B4357
:104520000360202050700020107070BDFFEFFFFF6F
:10453000FFF0FFFFF8B5040001D10120F2BD822792
:104540007F000025606A002804D16068B84203D06B
:10455000E56101E025616561A56226005C36707841
:10456000002803D13570200001F047F80220707058
:1045700020680168402291430160E368E022D20094
:10458000F0200001934203D90021834204D104E0CA
:1045900080214901934200D0A562012263681F4037
:1045A000BC46A76884231B023B4067463B439C46AE
:1045B000277C02231F4063461F43636913403B432C
:1045C0009C46A76953021F4063461F43BC46277F92
:1045D00038233B4067463B439C462023E75C8023CF
:1045E0001F4063461F43BC46A36A57033B406746D0
:1045F0003B4327683B60A3691F0C04231F40BC4654
:104600002423E35C10273B4067463B439C4634230E
:10461000E75C08231F4063461F43E36818403843A4
:104620000143206841602068C169034B0B40C361AE
:10463000756072700020F2BDFFF7FFFF38B504000F
:1046400014D0250074356868002803D12870200034
:1046500001F01DF824206860206801680122914360
:104660000160200000F020F8012801D1012032BDB6
:10467000606A002802D0200000F0A1F8206841689C
:10468000084A0A404260206881680822914381609C
:10469000FFE72068016801220A430260200000F061
:1046A000F5F832BDFFF7FFFFF8B50600002500243E
:1046B000306801688D4A0A40B168114332690A4383
:1046C00071691143F2690A4302604168884A0A40ED
:1046D000F168114341608168864A0A40B16911431B
:1046E000326A0A4382601022834988420FD183488C
:1046F00000688007800F13D0022806D003D3032858
:104700000FD102220DE004220BE0082209E07C49CF
:10471000884205D07B49884202D0B349884200D103
:104720000022B24FB24880210902F3698B4222D1A4
:10473000002A06D0022A19D0042A19D0082A04D047
:1047400038E000F0FFFD010035D0726848005108E4
:1047500040181100FCF7E4FE80B201001039B942A4
:1047600028D207400007400F38431BE00100ECE768
:1047700000F0C2FDE7E7002A06D0022A08D0042A8A
:1047800013D0082A14D015E000F0DCFD002812D068
:1047900071684A088018FCF7C3FE80B20100103926
:1047A000B94207D23168C86005E000F0A5FDEDE729
:1047B0000800EDE701247566B5662000F2BD2421EE
:1047C000415CC90706D501684A688A4B1340826A72
:1047D0001A434A602421415C890706D501684A686A
:1047E000854B1340C26A1A434A602421415C490741
:1047F00006D501684A68814B1340026B1A434A6030
:104800002421415C090706D501684A687C4B1340A6
:10481000426B1A434A602421415CC90606D50168EF
:104820008A68784B1340826B1A438A602421415C6A
:10483000890606D501688A68134B1340C26B1A4378
:104840008A602421415C490611D501684A686E4B93
:104850001340026C1A434A60026C80235B039A4245
:1048600005D14A68694B1340426C1A434A602421BF
:10487000415C090606D501684A68654B1340806CA7
:104880001843486070470000FFDFFFFFF8B50400E1
:1048900000257430C56001F05DF807005D4E2068AA
:1048A0000068000709D500963B000022802189039B
:1048B000200000F029F800280DD12068006840078A
:1048C0000BD500963B0000228021C903200000F098
:1048D0001BF8002801D00320F2BD210074312020F4
:1048E0004860886025660D700020F2BDF369FFEF17
:1048F000FFCFFFFFFFF4FFFF003801403010024000
:104900000044004000480040FEB5089F8024240178
:104910000025060001916846027002933068C06964
:10492000019901400198814201D1012000E000205D
:1049300069460978884254D10020C0438742EDD0AF
:1049400001F008F80299401A874201D3002F1FD1C5
:10495000EFF31080012181F3108831680A682E4B33
:1049600013400B6080F31088EFF31080012181F376
:10497000108831688A6801239A438A6080F310881E
:104980003000743020214160816005700320FEBD3D
:10499000306800684007C1D53068C0692040BDD08C
:1049A00030680462EFF31080012181F310883168D0
:1049B0000A68194B13400B6080F31088EFF31080E6
:1049C000012181F3108831688A6801239A438A6043
:1049D00080F3108830007430202141608160C16014
:1049E000D3E70020FEBD0000004C0040F0FF0000B7
:1049F00000127A00FFFFFDFFFFFFFEFFFFFFFBFF3E
:104A0000FF7FFFFFFFEFFFFFFFFFEFFFFFFF9FFFB6
:104A1000FFFFF7FFFFFFFF015FFEFFFF0EB4C0B512
:104A2000020003A801900020009001AB012104487E
:104A300078440C30FBF744FB029906B0084700BFEE
:104A4000F51A000081B0C3490A6802430A60096888
:104A500008400090009801B0704710B50B004B4320
:104A600001685C00E418A14353430B43036010BD8D
:104A700010B50B004B4381685C00E418A14353431D
:104A80000B43836010BD10B50B004B43C1685C0045
:104A9000E418A14353430B43C36010BD00690840B1
:104AA000884201D1012070470020704710B50024D2
:104AB000002931D0886901789020C005302902D1C1
:104AC0008021090223E0312903D180218901B548E1
:104AD0001DE0322901D1012119E0332901D104213E
:104AE00015E0B148342901D1202110E0352902D147
:104AF000802189000BE0362902D18021490006E09F
:104B0000372901D1102102E0382905D10821FFF70A
:104B1000C5FF002800D10124200010BD00000000C6
:104B2000FEB50E000025B3699D481C78A400041949
:104B3000A83C40692768C01B9C4FB84200D30020A6
:104B400097494969216000BF9FA4032A0DD0150031
:104B500002D100BF99A508E0012A01D1250004E097
:104B6000022A01D19BA500E09DA5A5423BD1327D43
:104B70000292B289019200951B7802008C48FFF7DF
:104B80004DFF80252D02874C6F08B06900783128D1
:104B900006D028D3332813D007D3342815D0F7BD37
:104BA00092A0FFF73BFF002204E000BF94A0FFF7B4
:104BB00035FF012239002000FFF79EFA00220EE0A7
:104BC00094A0FFF72BFF002204E000BF96A0FFF7A0
:104BD00025FF012239002000FFF78EFA012229006B
:104BE0002000FFF789FAF7BD7CB580208002FFF72F
:104BF00029FF8020C002FFF725FF80200003FFF778
:104C000021FF9024E405002202212000FFF725FF68
:104C1000002202212000FFF736FF0322022120009C
:104C2000FFF726FF002208212000FFF716FF0022D1
:104C300008212000FFF727FF032208212000FFF7AB
:104C400017FF002210212000FFF707FF002210218C
:104C50002000FFF718FF032210212000FFF708FFB4
:104C6000002240212000FFF7F8FE00224021200012
:104C7000FFF709FF032240212000FFF7F9FE494E0C
:104C80008025AD01002229003000FFF7E6FE00225A
:104C900029003000FFF7F7FE032229003000FFF75C
:104CA000E7FE002201212000FFF7D7FE00220121AC
:104CB0002000FFF7E8FE032201212000FFF7D8FEC5
:104CC000002204212000FFF7C8FE0022042120005A
:104CD000FFF7D9FE032204212000FFF7C9FE324C62
:104CE000002220212000FFF7B8FE00222021200012
:104CF000FFF7C9FE032220212000FFF7B9FE284854
:104D000001003C314160092101812A49C1600091C3
:104D1000294B092201003C31001D00F092FE0120C8
:104D200076BD70B51E4E7169301D00F0A1FE0024E5
:104D30001C206043351829003C31301DFFF7B6FEBA
:104D4000010028003C3000F0ADFE641C092CEFD3BC
:104D500070BD0000141002401148018A491C0182F4
:104D60004269521C426189B2FA229200914200DAF1
:104D7000704710B5002101820278521CD3B23C2B3F
:104D800007DB002243785B1CDCB23C2C00DB0023F9
:104D900043700270D2B2417828A0FFF73FFE10BDE9
:104DA000000000200008004800040048D10700006F
:104DB0004C630008214B0008AD4A000820204F4EEC
:104DC00050524553530000004F4E52454C454153FD
:104DD0004500000020204F4E434C49434B0000004B
:104DE0002020554E4B4E4F574E00000042757474B4
:104DF0006F6E203120507265737365640D0A000078
:104E0000427574746F6E20322050726573736564DE
:104E10000D0A0000427574746F6E20332050726565
:104E2000737365640D0A0000427574746F6E2034EC
:104E300020507265737365640D0A00000A0D206DC1
:104E4000696E757465732D2D7365636F6E64733A47
:104E50002025642D2D2564200A0D2000FEB50600B6
:104E60001BD0B04C3078C00719D58027BF026068CE
:104E70000C21014004290BD0780861680C220A40FB
:104E8000082A47D16168C02252020A40824241D1B9
:104E90002068074003D07068002800D19FE1307877
:104EA00080071FD5F827FF4360680C2101400CD014
:104EB00060680C21014008295ED16068C021490268
:104EC000014080200002814256D12068800703D52E
:104ED000F068012800D082E1206807403069C000F6
:104EE000384320603078000777D50227F069002822
:104EF000606A63D001210143616200F02BFD05006F
:104F0000606A384069D100F025FD401B0228F7D9BE
:104F10000320FEBD7368012B09D0B349B34A002BAF
:104F200009D0052B07D1216882000A43226021683D
:104F30000843206005E020680240226020680140AC
:104F40002160706800280BD000F004FD0500206887
:104F50003840A4D100F0FEFC401B6528F7D3D7E70A
:104F600000F0F8FC05002068384098D000F0F2FC12
:104F7000401B6528F7D3CBE7F068002820680ED0E7
:104F800001210143216000F0E5FC05002068800755
:104F9000A2D400F0DFFC401B0228F7D9B8E70121BA
:104FA0008843206000F0D6FC05002068800799D572
:104FB00000F0D0FC401B0228F7D9A9E70121884363
:104FC000606200F0C7FC0500606A384005D000F060
:104FD000C1FC401B0228F7D99AE704273068384003
:104FE00062D000200190B806E169014008D1E16972
:104FF0000143E161E16908400090009801200190BF
:105000007B480068C00512D479480068A10D0143AF
:105010007748016000F09EFC050075480068C005F7
:1050200005D400F097FC401B6528F6D370E7B06804
:10503000012808D0002801D1206A09E00528206A4B
:1050400006D138432062206A01210143216205E034
:10505000012188432062206AB8432062A44800905E
:10506000B06800280CD000F075FC0500206A8007AD
:1050700013D400F06FFC401B00998842F6D347E739
:1050800000F068FC0500206A800706D500F062FC8D
:10509000401B00998842F6D33AE70198002803D0D4
:1050A000E06994490140E1613078C0061DD570691E
:1050B000F825ED43012837D1606B07436763606BC8
:1050C00001210143616300F045FC0700606B80072C
:1050D00005D400F03FFCC01B0228F7D918E7606B2D
:1050E0000540B069C00028436063306A002878D06A
:1050F00061680C220A40082A5CD08027BF049049CE
:105100000228206848D10140216000F023FC0500FE
:105110002068384022D000F01DFC401B0228F7D93F
:10512000F6E600BF001002400421C9438842606BCC
:1051300002D101406163D2E707436763606B0121DD
:105140008843606300F006FC0500606B8007CCD5E7
:1051500000F000FC401B0228F7D9D9E6E06A0F21D5
:105160008843F16A0143E16260687B490140B06AAB
:105170000843716A01436160206879080143216036
:1051800000F0E8FB0500206838402AD100F0E2FB7F
:10519000401B0228F7D9BBE60140216000F0DAFB92
:1051A0000500206838401CD000F0D4FB401B0228CA
:1051B000F7D9ADE6012812D06068E16AC022520238
:1051C0000240736A9A420AD10907090FF26A9142B2
:1051D00005D1F02189030140B06A814201D001204C
:1051E000FEBD0020FEBD0000FFFFFBFFFFFFFEFF36
:1051F00000700040F8B5040060D000915748006886
:10520000C107C90F009881420CD25448016801229D
:105210009143009A0A4302600068C107C90F0098D1
:1052200081424BD121684E4D022001420CD04907EA
:1052300004D56968E022D2000A436A606968F022F6
:105240009143A2680A436A6001272168394025D04A
:105250006168012902D12868800303E0022903D193
:105260002868800103D429E02A68104026D06868A5
:10527000032290430143696000F06CFB06006868FC
:105280000C21014060688000814207D000F062FB81
:10529000801B17498842F2D30320F2BD2F480099A2
:1052A00002683A4091420BD20168B943009A0A431E
:1052B0000260006807400098874201D00120F2BDDB
:1052C0002078400705D5686826490140E068084312
:1052D000686000F011F824496A681206120F895CB0
:1052E000C84022490860002000F0E0F80020F2BD2C
:1052F00089130000FFFFFFEF70B51D490B681D48C3
:105300001D4A0C241C40042C02D0082C02D070BD75
:10531000100070BD0F2500BF19A49E0C2E40A45D87
:105320001BA6896A0D40715DC0256D021D4080235A
:105330005B029D4200D11000FCF7F2F8604370BDA3
:10534000FFFFFFFE094800680C49094A1268520530
:10535000520F895CC8407047FF7FC2FF00200240A7
:1053600000100240FFF8FFFF6065000844010020C4
:105370000410024000127A0000366E018C650008AD
:1053800002030405060708090A0B0C0D0E0F101086
:105390000102030405060708090A0B0C0D0E0F1085
:1053A000F8B504003B4D2068C00356D5002000909E
:1053B000802040052968014008D1296801432960FF
:1053C000296808400090009801200090324F38680A
:1053D000C00510D43868A90D0143396000F0BAFA4D
:1053E00006003868C00506D400F0B4FA801B6528B2
:1053F000F7D30320F2BDC020800069680140274F29
:1054000000291ED06268104081421AD06868384076
:105410006968802252020A436A606968204A0A4029
:105420006A606860C0070CD500F094FA06006868EE
:10543000800706D400F08EFA801B1A498842F6D302
:10544000D7E76868074060683843686000980028BC
:1054500003D028681449014029602078C00705D589
:10546000686903218843A168014369612078800647
:1054700005D5686910218843E168014369612068A6
:10548000800305D5686980218843216901436961EA
:105490000020F2BD1C10024000700040FFFCFFFF26
:1054A000FFFFFEFF89130000FFFFFFEF38B5050087
:1054B0000D4CFA2080002178FCF732F801000B48EF
:1054C0000068FCF72DF8FDF7E3FE00280AD1042D53
:1054D00008D2002229000020C043FDF7CCFEA560C1
:1054E000002032BD012032BD3801002044010020DF
:1054F00081B001207E490A6802430A600A681040B0
:1055000000900098802040054A6802434A6049683C
:1055100008400090009801B0704710B586B00400B4
:105520001422002101A800F0C4FA206871498842C1
:105530001CD17148410D42680A43426042681140E3
:10554000009100998021890202680A430260006884
:105550000140009100985820019003200290002003
:10556000039001A99020C005FEF7FEFC06B010BD17
:10557000F8B586B0040014220021684600F099FABC
:10558000266801200321122283045B4C00255B4F17
:10559000BE4213D126681E43266026683340059319
:1055A000059BC023009301920295039104906946E4
:1055B0005348FEF7D9FC8020800315E0514FBE42CE
:1055C00019D126681E432660266833400593059B43
:1055D0008B0200930192029503910490694648481A
:1055E000FEF7C2FC8020C003A1680143A160A1684E
:1055F00008400090009807B0F0BD38B586B00400B0
:1056000014220021684600F054FA24680320022185
:10561000394A00233C4DAC4219D1CC025568254390
:10562000556055682C400594059C0C04156825436D
:105630001560126814400594059AA0220092019109
:1056400002930390049369469020C0051BE02F4D00
:10565000AC421AD14C0395682543956095682C405F
:105660000594059C4C041568254315601268144088
:105670000594059AF0221202009201910293039080
:10568000049369461E48FEF76FFC07B030BD10B5A5
:1056900086B004001422002101A800F00AFA206854
:1056A0001B49884222D114488021C90142680A431B
:1056B000426042681140009100998021890202688D
:1056C0000A4302600068014000910098C020C000B9
:1056D00001900220029000200390032004900120FA
:1056E000059001A99020C005FEF73EFC06B010BD54
:1056F00018100240002401401410024000540040E1
:1057000000040048005800400030014000380040CC
:1057100000380140F8B5060000250024402303228C
:105720008121FCF7B8FF0127F76240230322012102
:105730003000FCF7B0FFB620400037505420FCF793
:10574000FCFFAE21890071180860002801D10124F6
:105750000BE0070050203D544868406880474023D4
:105760003A0001213000FCF7DFFF2000F2BD38B520
:1057700005008121FCF79BFF0024EC620121280039
:10578000FCF795FFB62040002C50AE2080002D186D
:105790002868002806D06868806880472868FCF779
:1057A000D9FF2C60002032BDFEB5A72292008518DB
:1057B000EB690024002201946F463C800E7860273C
:1057C000374023D0202F59D14A78022A13D0032AF8
:1057D00009D0092A13D00A2A09D00B2A4ED14888A9
:1057E000C0B218644DE00122190040313CE0488805
:1057F000000A586445E001221900443134E00122D6
:10580000DA64CA881900FEF74FFB3AE04E78002EA2
:1058100006D0062E0CD00A2E20D00B2E27D02DE03D
:105820002A78032A2AD102226946FEF72BFB28E0B8
:105830004B881B0A222B07D1CA88222A00DB21228F
:10584000296A0968019107E0212B05D1374A0192A5
:10585000CA880A2A00D30922019905E02A78032A76
:105860000CD1012219004831FEF70CFB09E02A781F
:10587000032A03D14888C0B2986402E0FEF7D6FA42
:1058800002242000FEBD38B5A7239B00C418E3699D
:105890002478032C0BD150241C5D002C09D1012449
:1058A00050255C5513000A008121FCF734FF0020CD
:1058B00032BD012032BD292101801D4870472921B8
:1058C00001801C487047292101801B487047002136
:1058D000AE2292008058502281540020704738B583
:1058E0000400AE20800021180D6828004968C968AE
:1058F000884740232A0001212000FCF715FF0020E3
:1059000032BD10B5AE21890041180C68E06C012849
:1059100005D120004968C96888470020E06400205C
:1059200010BD0A21018005487047000038020020A0
:10593000B4010020E00100200C02002044020020FD
:1059400002000220002903D0AF2080001150002067
:105950007047FEE701484068704700BF38010020EB
:10596000F8B505000C001600A07800900027E1783B
:10597000884232D000282CD12088C10729D5474938
:1059800001402180012221002800AB68984760680F
:10599000301A1438FF211A3188420FD2207D002896
:1059A00009D0032807DA2169711AC82252009142EE
:1059B00001D2401C00E0012020752661207D0028D6
:1059C00007D0032805D1022221002800AB689847A0
:1059D00027756660A660A78130E000281FD0208868
:1059E000C1070DD46168711A142927D3012101431D
:1059F0002180002221002800AB689847A6601DE0A6
:105A0000A068311A642919D36430A060A089401CB1
:105A1000A081032221002800AB6898470EE0207D7A
:105A200000280BD02069301AC8214900884205D3CC
:105A3000022221002800AB68984727750098E07083
:105A4000F1BD70B5002800D11548002904D013001D
:105A500002D0049B1C0001D1002070BD0024002551
:105A6000002670C00C38016082808360012070BD08
:105A700070B5002800D10A48002405000E0008E097
:105A8000320028681C21614341182800FFF768FF95
:105A9000641CA8888442F3D3012070BDFEFF00007F
:105AA000840F00208170018802220A4302800120B5
:105AB000704710B504000800110002002000FEF736
:105AC0004DFA200010BDFEE710B5040000BF00BF76
:105AD000200000F005F8040000BF00BF200010BD4A
